{
  "contractName": "SavingDefi",
  "abi": [
    {
      "anonymous": false,
      "inputs": [
        {
          "indexed": true,
          "internalType": "address",
          "name": "user",
          "type": "address"
        },
        {
          "indexed": false,
          "internalType": "uint256",
          "name": "amount",
          "type": "uint256"
        }
      ],
      "name": "Deposit",
      "type": "event"
    },
    {
      "anonymous": false,
      "inputs": [
        {
          "indexed": true,
          "internalType": "address",
          "name": "user",
          "type": "address"
        },
        {
          "indexed": false,
          "internalType": "uint256",
          "name": "interest",
          "type": "uint256"
        }
      ],
      "name": "InterestCalculated",
      "type": "event"
    },
    {
      "anonymous": false,
      "inputs": [
        {
          "indexed": true,
          "internalType": "address",
          "name": "user",
          "type": "address"
        },
        {
          "indexed": false,
          "internalType": "uint256",
          "name": "amount",
          "type": "uint256"
        },
        {
          "indexed": false,
          "internalType": "uint256",
          "name": "interest",
          "type": "uint256"
        }
      ],
      "name": "Withdrawal",
      "type": "event"
    },
    {
      "stateMutability": "payable",
      "type": "fallback"
    },
    {
      "inputs": [],
      "name": "ANNUAL_INTEREST_RATE",
      "outputs": [
        {
          "internalType": "uint256",
          "name": "",
          "type": "uint256"
        }
      ],
      "stateMutability": "view",
      "type": "function"
    },
    {
      "inputs": [],
      "name": "MAX_WITHDRAWAL_PERCENTAGE",
      "outputs": [
        {
          "internalType": "uint256",
          "name": "",
          "type": "uint256"
        }
      ],
      "stateMutability": "view",
      "type": "function"
    },
    {
      "inputs": [],
      "name": "SECONDS_PER_YEAR",
      "outputs": [
        {
          "internalType": "uint256",
          "name": "",
          "type": "uint256"
        }
      ],
      "stateMutability": "view",
      "type": "function"
    },
    {
      "inputs": [
        {
          "internalType": "address",
          "name": "",
          "type": "address"
        }
      ],
      "name": "deposits",
      "outputs": [
        {
          "internalType": "uint256",
          "name": "amount",
          "type": "uint256"
        },
        {
          "internalType": "uint256",
          "name": "timestamp",
          "type": "uint256"
        },
        {
          "internalType": "uint256",
          "name": "lastInterestCalculation",
          "type": "uint256"
        }
      ],
      "stateMutability": "view",
      "type": "function"
    },
    {
      "stateMutability": "payable",
      "type": "receive"
    },
    {
      "inputs": [],
      "name": "deposit",
      "outputs": [],
      "stateMutability": "payable",
      "type": "function"
    },
    {
      "inputs": [
        {
          "internalType": "address",
          "name": "user",
          "type": "address"
        }
      ],
      "name": "calculateInterest",
      "outputs": [
        {
          "internalType": "uint256",
          "name": "",
          "type": "uint256"
        }
      ],
      "stateMutability": "view",
      "type": "function"
    },
    {
      "inputs": [
        {
          "internalType": "uint256",
          "name": "amount",
          "type": "uint256"
        }
      ],
      "name": "withdraw",
      "outputs": [],
      "stateMutability": "nonpayable",
      "type": "function"
    },
    {
      "inputs": [],
      "name": "withdrawAll",
      "outputs": [],
      "stateMutability": "pure",
      "type": "function"
    },
    {
      "inputs": [
        {
          "internalType": "address",
          "name": "user",
          "type": "address"
        }
      ],
      "name": "getTotalBalance",
      "outputs": [
        {
          "internalType": "uint256",
          "name": "",
          "type": "uint256"
        }
      ],
      "stateMutability": "view",
      "type": "function"
    },
    {
      "inputs": [],
      "name": "getContractBalance",
      "outputs": [
        {
          "internalType": "uint256",
          "name": "",
          "type": "uint256"
        }
      ],
      "stateMutability": "view",
      "type": "function"
    }
  ],
  "bytecode": "0x608060405234801561001057600080fd5b50610f92806100206000396000f3fe6080604052600436106100b2576000357c010000000000000000000000000000000000000000000000000000000090048063d3d3819311610076578063d3d38193146101cd578063e11932cf1461020a578063e6a69ab814610247578063fa3c309214610272578063fc7e286d1461029d576100f2565b80632e1a7d4d1461012d5780636f9fb98a14610156578063853828b614610181578063b678339314610198578063d0e30db0146101c3576100f2565b366100f2576040517f08c379a00000000000000000000000000000000000000000000000000000000081526004016100e9906108da565b60405180910390fd5b6040517f08c379a000000000000000000000000000000000000000000000000000000000815260040161012490610946565b60405180910390fd5b34801561013957600080fd5b50610154600480360381019061014f91906109a1565b6102dc565b005b34801561016257600080fd5b5061016b61054a565b60405161017891906109dd565b60405180910390f35b34801561018d57600080fd5b50610196610569565b005b3480156101a457600080fd5b506101ad6105a4565b6040516101ba91906109dd565b60405180910390f35b6101cb6105aa565b005b3480156101d957600080fd5b506101f460048036038101906101ef9190610a56565b610732565b60405161020191906109dd565b60405180910390f35b34801561021657600080fd5b50610231600480360381019061022c9190610a56565b610790565b60405161023e91906109dd565b60405180910390f35b34801561025357600080fd5b5061025c610846565b60405161026991906109dd565b60405180910390f35b34801561027e57600080fd5b5061028761084e565b60405161029491906109dd565b60405180910390f35b3480156102a957600080fd5b506102c460048036038101906102bf9190610a56565b610853565b6040516102d393929190610a83565b60405180910390f35b60008060003373ffffffffffffffffffffffffffffffffffffffff1673ffffffffffffffffffffffffffffffffffffffff16815260200190815260200160002090508181600001541015610365576040517f08c379a000000000000000000000000000000000000000000000000000000000815260040161035c90610b06565b60405180910390fd5b600082116103a8576040517f08c379a000000000000000000000000000000000000000000000000000000000815260040161039f90610b98565b60405180910390fd5b60006103b333610790565b905060008183600001546103c79190610be7565b9050600060646032836103da9190610c1b565b6103e49190610c8c565b905080851115610429576040517f08c379a000000000000000000000000000000000000000000000000000000000815260040161042090610d09565b60405180910390fd5b84826104359190610d29565b846000018190555042846002018190555060003373ffffffffffffffffffffffffffffffffffffffff168660405161046c90610d8e565b60006040518083038185875af1925050503d80600081146104a9576040519150601f19603f3d011682016040523d82523d6000602084013e6104ae565b606091505b50509050806104f2576040517f08c379a00000000000000000000000000000000000000000000000000000000081526004016104e990610def565b60405180910390fd5b3373ffffffffffffffffffffffffffffffffffffffff167fdf273cb619d95419a9cd0ec88123a0538c85064229baa6363788f743fff90deb878660405161053a929190610e0f565b60405180910390a2505050505050565b60003073ffffffffffffffffffffffffffffffffffffffff1631905090565b6040517f08c379a000000000000000000000000000000000000000000000000000000000815260040161059b90610eaa565b60405180910390fd5b6101f481565b600034116105ed576040517f08c379a00000000000000000000000000000000000000000000000000000000081526004016105e490610f3c565b60405180910390fd5b60008060003373ffffffffffffffffffffffffffffffffffffffff1673ffffffffffffffffffffffffffffffffffffffff16815260200190815260200160002090506000816000015411156106b457600061064733610790565b90508082600001600082825461065d9190610be7565b925050819055503373ffffffffffffffffffffffffffffffffffffffff167f3aff28a570e0ff120bf92f84de651faa874ba2dd7268ad0fc5a6810749272979826040516106aa91906109dd565b60405180910390a2505b348160000160008282546106c89190610be7565b925050819055504281600101819055504281600201819055503373ffffffffffffffffffffffffffffffffffffffff167fe1fffcc4923d04b559f4d29a8bfc6cda04eb5b0d3c460751c2402c5c5cc9109c3460405161072791906109dd565b60405180910390a250565b600061073d82610790565b6000808473ffffffffffffffffffffffffffffffffffffffff1673ffffffffffffffffffffffffffffffffffffffff168152602001908152602001600020600001546107899190610be7565b9050919050565b6000806000808473ffffffffffffffffffffffffffffffffffffffff1673ffffffffffffffffffffffffffffffffffffffff168152602001908152602001600020905060008160000154036107e9576000915050610841565b60008160020154426107fb9190610d29565b905060006127106301e133806108119190610c1b565b826101f485600001546108249190610c1b565b61082e9190610c1b565b6108389190610c8c565b90508093505050505b919050565b6301e1338081565b603281565b60006020528060005260406000206000915090508060000154908060010154908060020154905083565b600082825260208201905092915050565b7f557365206465706f736974282920746f206465706f7369742045544800000000600082015250565b60006108c4601c8361087d565b91506108cf8261088e565b602082019050919050565b600060208201905081810360008301526108f3816108b7565b9050919050565b7f46756e6374696f6e20646f6573206e6f74206578697374000000000000000000600082015250565b600061093060178361087d565b915061093b826108fa565b602082019050919050565b6000602082019050818103600083015261095f81610923565b9050919050565b600080fd5b6000819050919050565b61097e8161096b565b811461098957600080fd5b50565b60008135905061099b81610975565b92915050565b6000602082840312156109b7576109b6610966565b5b60006109c58482850161098c565b91505092915050565b6109d78161096b565b82525050565b60006020820190506109f260008301846109ce565b92915050565b600073ffffffffffffffffffffffffffffffffffffffff82169050919050565b6000610a23826109f8565b9050919050565b610a3381610a18565b8114610a3e57600080fd5b50565b600081359050610a5081610a2a565b92915050565b600060208284031215610a6c57610a6b610966565b5b6000610a7a84828501610a41565b91505092915050565b6000606082019050610a9860008301866109ce565b610aa560208301856109ce565b610ab260408301846109ce565b949350505050565b7f496e73756666696369656e742062616c616e6365000000000000000000000000600082015250565b6000610af060148361087d565b9150610afb82610aba565b602082019050919050565b60006020820190508181036000830152610b1f81610ae3565b9050919050565b7f5769746864726177616c20616d6f756e74206d7573742062652067726561746560008201527f72207468616e2030000000000000000000000000000000000000000000000000602082015250565b6000610b8260288361087d565b9150610b8d82610b26565b604082019050919050565b60006020820190508181036000830152610bb181610b75565b9050919050565b7f4e487b7100000000000000000000000000000000000000000000000000000000600052601160045260246000fd5b6000610bf28261096b565b9150610bfd8361096b565b9250828201905080821115610c1557610c14610bb8565b5b92915050565b6000610c268261096b565b9150610c318361096b565b9250828202610c3f8161096b565b91508282048414831517610c5657610c55610bb8565b5b5092915050565b7f4e487b7100000000000000000000000000000000000000000000000000000000600052601260045260246000fd5b6000610c978261096b565b9150610ca28361096b565b925082610cb257610cb1610c5d565b5b828204905092915050565b7f45786365656473206d6178696d756d207769746864726177616c206c696d6974600082015250565b6000610cf360208361087d565b9150610cfe82610cbd565b602082019050919050565b60006020820190508181036000830152610d2281610ce6565b9050919050565b6000610d348261096b565b9150610d3f8361096b565b9250828203905081811115610d5757610d56610bb8565b5b92915050565b600081905092915050565b50565b6000610d78600083610d5d565b9150610d8382610d68565b600082019050919050565b6000610d9982610d6b565b9150819050919050565b7f5472616e73666572206661696c65640000000000000000000000000000000000600082015250565b6000610dd9600f8361087d565b9150610de482610da3565b602082019050919050565b60006020820190508181036000830152610e0881610dcc565b9050919050565b6000604082019050610e2460008301856109ce565b610e3160208301846109ce565b9392505050565b7f46756e6374696f6e2064697361626c656420746f2070726576656e742062616e60008201527f6b2072756e000000000000000000000000000000000000000000000000000000602082015250565b6000610e9460258361087d565b9150610e9f82610e38565b604082019050919050565b60006020820190508181036000830152610ec381610e87565b9050919050565b7f4465706f73697420616d6f756e74206d7573742062652067726561746572207460008201527f68616e2030000000000000000000000000000000000000000000000000000000602082015250565b6000610f2660258361087d565b9150610f3182610eca565b604082019050919050565b60006020820190508181036000830152610f5581610f19565b905091905056fea2646970667358221220d0bc074ed4dd14567e579f080a010a254b903db3dcfc7e3a3bab10280c161ae064736f6c63430008150033",
  "immutableReferences": {},
  "source": "// SPDX-License-Identifier: MIT\r\npragma solidity ^0.8.0;\r\n\r\n/**\r\n * @title SavingDefi\r\n * @dev \r\n * @notice \r\n * @author Your Name\r\n */\r\ncontract SavingDefi {\r\n    // \r\n\r\n    /**\r\n     * @dev \r\n     * @notice \r\n     */\r\n    struct DepositInfo {\r\n        uint256 amount; // \r\n        uint256 timestamp; // \r\n        uint256 lastInterestCalculation; // \r\n    }\r\n\r\n    /**\r\n     * @dev \r\n     */\r\n    mapping(address => DepositInfo) public deposits;\r\n\r\n    /**\r\n     * @dev (1% = 100)\r\n     * 500  5% \r\n     */\r\n    uint256 public constant ANNUAL_INTEREST_RATE = 500; // 5% \r\n\r\n    /**\r\n     * @dev ()\r\n     */\r\n    uint256 public constant MAX_WITHDRAWAL_PERCENTAGE = 50; // 50%\r\n\r\n    /**\r\n     * @dev \r\n     */\r\n    uint256 public constant SECONDS_PER_YEAR = 31536000; // 365 days\r\n\r\n    // \r\n    event Deposit(address indexed user, uint256 amount);\r\n    event Withdrawal(address indexed user, uint256 amount, uint256 interest);\r\n    event InterestCalculated(address indexed user, uint256 interest);\r\n\r\n    /**\r\n     * @dev ETH\r\n     */\r\n    function deposit() public payable {\r\n        require(msg.value > 0, \"Deposit amount must be greater than 0\");\r\n\r\n        DepositInfo storage userDeposit = deposits[msg.sender];\r\n\r\n        // \r\n        if (userDeposit.amount > 0) {\r\n            uint256 interest = calculateInterest(msg.sender);\r\n            userDeposit.amount += interest;\r\n            emit InterestCalculated(msg.sender, interest);\r\n        }\r\n\r\n        // \r\n        userDeposit.amount += msg.value;\r\n        userDeposit.timestamp = block.timestamp;\r\n        userDeposit.lastInterestCalculation = block.timestamp;\r\n\r\n        emit Deposit(msg.sender, msg.value);\r\n    }\r\n\r\n    /**\r\n     * @dev \r\n     * @param user \r\n     * @return \r\n     */\r\n    function calculateInterest(address user) public view returns (uint256) {\r\n        DepositInfo storage userDeposit = deposits[user];\r\n\r\n        if (userDeposit.amount == 0) {\r\n            return 0;\r\n        }\r\n\r\n        uint256 timeElapsed = block.timestamp -\r\n            userDeposit.lastInterestCalculation;\r\n\r\n        //  *  * \r\n        uint256 interest = (userDeposit.amount *\r\n            ANNUAL_INTEREST_RATE *\r\n            timeElapsed) / (SECONDS_PER_YEAR * 10000);\r\n\r\n        return interest;\r\n    }\r\n\r\n    /**\r\n     * @dev ETH\r\n     * @param amount \r\n     */\r\n    function withdraw(uint256 amount) public {\r\n        DepositInfo storage userDeposit = deposits[msg.sender];\r\n\r\n        require(userDeposit.amount >= amount, \"Insufficient balance\");\r\n        require(amount > 0, \"Withdrawal amount must be greater than 0\");\r\n\r\n        // \r\n        uint256 interest = calculateInterest(msg.sender);\r\n        uint256 totalBalance = userDeposit.amount + interest;\r\n\r\n        // \r\n        uint256 maxWithdrawal = (totalBalance * MAX_WITHDRAWAL_PERCENTAGE) /\r\n            100;\r\n        require(amount <= maxWithdrawal, \"Exceeds maximum withdrawal limit\");\r\n\r\n        // \r\n        userDeposit.amount = totalBalance - amount;\r\n        userDeposit.lastInterestCalculation = block.timestamp;\r\n\r\n        // ETH\r\n        (bool success, ) = payable(msg.sender).call{value: amount}(\"\");\r\n        require(success, \"Transfer failed\");\r\n\r\n        emit Withdrawal(msg.sender, amount, interest);\r\n    }\r\n\r\n    /**\r\n     * @dev \r\n     * @notice \r\n     */\r\n    function withdrawAll() public pure {\r\n        revert(\"Function disabled to prevent bank run\");\r\n    }\r\n\r\n    /**\r\n     * @dev \r\n     * @param user \r\n     * @return ()\r\n     */\r\n    function getTotalBalance(address user) public view returns (uint256) {\r\n        return deposits[user].amount + calculateInterest(user);\r\n    }\r\n\r\n    /**\r\n     * @dev \r\n     */\r\n    function getContractBalance() public view returns (uint256) {\r\n        return address(this).balance;\r\n    }\r\n\r\n    receive() external payable {\r\n        revert(\"Use deposit() to deposit ETH\");\r\n    }\r\n\r\n    fallback() external payable {\r\n        revert(\"Function does not exist\");\r\n    }\r\n}\r\n",
  "sourcePath": "D:\\31-study\\contract-dome\\contracts\\SavingDefi.sol",
  "compiler": {
    "name": "solc",
    "version": "0.8.21+commit.d9974bed.Emscripten.clang"
  },
  "schemaVersion": "3.4.16",
  "updatedAt": "2025-02-20T12:17:37.565Z",
  "devdoc": {
    "author": "Your Name",
    "details": "",
    "kind": "dev",
    "methods": {
      "calculateInterest(address)": {
        "details": "",
        "params": {
          "user": ""
        },
        "returns": {
          "_0": ""
        }
      },
      "deposit()": {
        "details": "ETH"
      },
      "getContractBalance()": {
        "details": ""
      },
      "getTotalBalance(address)": {
        "details": "",
        "params": {
          "user": ""
        },
        "returns": {
          "_0": "()"
        }
      },
      "withdraw(uint256)": {
        "details": "ETH",
        "params": {
          "amount": ""
        }
      },
      "withdrawAll()": {
        "details": ""
      }
    },
    "stateVariables": {
      "ANNUAL_INTEREST_RATE": {
        "details": "(1% = 100) 500  5% "
      },
      "MAX_WITHDRAWAL_PERCENTAGE": {
        "details": "()"
      },
      "SECONDS_PER_YEAR": {
        "details": ""
      },
      "deposits": {
        "details": ""
      }
    },
    "title": "SavingDefi",
    "version": 1
  },
  "userdoc": {
    "kind": "user",
    "methods": {
      "withdrawAll()": {
        "notice": ""
      }
    },
    "notice": "",
    "version": 1
  }
}